:0800030002090000020C0000DC
:1002E900E587541064107056900000E584F0A3E58A
:1002F90085F0900000E025E0FFE433FEA3E054011F
:100309007C002FFFEC3EA3F0A3EFF0E024F1F09086
:100319000002E034FFF0E0FEA3E0FF5401FD90008D
:1003290001F0EEC313EF13900000F075C7AA75C76B
:0E03390055F58475C7AA75C7558D855387EF96
:010347002293
:03007B000204C7B5
:1004C700C0E0C0F0C083C082C0D075D000C000C0FB
:1004D70001C002C003C004C005C006C00730F8074A
:1004E700C2F8AF9A120014D007D006D005D004D0B6
:1004F70003D002D001D000D0D0D082D083D0F0D0AA
:02050700E032E0
:03002300020509CA
:10050900C0E0C0F0C083C082C0D075D000C000C0B8
:1005190001C002C003C004C005C006C00730980767
:10052900C298AF991205B3D007D006D005D004D030
:1005390003D002D001D000D0D0D082D083D0F0D067
:02054900E0329E
:100584001202E97F807E257D007C0012054B7F806E
:100594007E257D007C00120285D2ACD2AF1205AB61
:0705A4008F0B12001480F61A
:10054B0053B1BF53B2BF53B17F53B27F7598504372
:10055B008920438780438E1053C4DFAB07AA06A9BB
:10056B0005A8047F407E427D0F7C001200BAEF0489
:09057B00F404F58DD28ED2992210
:10021C008F118E108D0F8C0E53B1BF53B2BF53B1D3
:10022C007F53B27F75985043878053C4F843C420E2
:10023C00AB11AA10A90FA80E7F407E427D0F7C0047
:10024C001200BAC374FF9FFF74FF9EFEE49DFDE491
:10025C009CFC780812015D8FC6AB11AA10A90FA8DF
:10026C000E7F407E427D0F7C001200BAC374FF9F4C
:09027C00FF8FC543C408D299228A
:07000C003098FDAF99C29886
:0100130022CA
:08001400C2998F993099FD2279
:100285008F308E2F8D2E8C2D53B1FB53B2FB53B374
:10029500BF53B4BF75F85075C40853C4DFAB30AA5B
:1002A5002FA92EA82D7F407E427D0F7C001200BA1B
:1002B500C374FF9FFF74FF9EFEE49DFDE49CFC78E4
:1002C5000812015D8FC6AB30AA2FA92EA82D7F403D
:1002D5007E427D0F7C001200BAC374FF9FFF8FC55D
:0402E50043C40822E4
:0705AB0030F8FDAF9AC2F821
:0105B2002226
:0805B300C2F98F9A30F9FD2214
:1003E6008F158E148D138C12538EF7438901D28C80
:1003F600E4FFFEFDFCAB15AA14A913A812C3120153
:100406004C6025758A7E758CFF308DFDC28DE51595
:1004160024FFF515E51434FFF514E51334FFF51341
:0B042600E51234FFF51280C8C28C22E2
:100431008F198E188D178C16538EF7438901D28C24
:10044100E4FFFEFDFCAB19AA18A917A816C31201F7
:100451004C6025758ACA758CFA308DFDC28DE519FF
:1004610024FFF519E51834FFF518E51734FFF517E2
:0B047100E51634FFF51680C8C28C228F
:10047C008F1D8E1C8D1B8C1A538EEF438910D28EC0
:10048C00E4FFFEFDFCAB1DAA1CA91BA81AC312019C
:10049C004C6025758BEA758DCB308FFDC28FE51DB9
:1004AC0024FFF51DE51C34FFF51CE51B34FFF51B83
:0B04BC00E51A34FFF51A80C8C28E223A
:100398008F248E238D228C2153C9BF53C9DF43C9B3
:1003A80010D2CAE4FFFEFDFCAB24AA23A922A8218F
:1003B800C312014C602575CC3075CDF830CFFDC225
:1003C800CFE52424FFF524E52334FFF523E5223483
:0E03D800FFF522E52134FFF52180C8C2CA22BC
:100026008F288E278D268C2575C40743C408E4FFC8
:10003600FEFDFCAB28AA27A926A825C312014C6001
:100046002B75C52C75C6CFE5C45410641070F853D3
:10005600C4EFE52824FFF528E52734FFF527E52634
:1000660034FFF526E52534FFF52580C253C4F72273
:100348008F2C8E2B8D2A8C2975C40743C408E4FF93
:10035800FEFDFCAB2CAA2BA92AA829C312014C60CC
:100368002B75C5D875C6FFE5C45410641070F853D2
:10037800C4EFE52C24FFF52CE52B34FFF52BE52AFB
:1003880034FFF52AE52934FFF52980C253C4F72242
:030000000201708A
:1001700075C7AA75C75575FD5A75C7AA75C7557550
:10018000FDA5787FE4F6D8FD9000007FFF7E03E4B4
:0C019000F0A3DFFCDEFA7581300201D71D
:10019C00020584E493A3F8E493A34003F68001F2F0
:1001AC0008DFF48029E493A3F85407240CC8C33364
:1001BC00C4540F4420C8834004F456800146F6DF33
:1001CC00E4800B0102040810204080900003E47EC0
:1001DC00019360BCA3FF543F30E509541FFEE49328
:1001EC00A360010ECF54C025E060A840B8E493A3EF
:1001FC00FAE493A3F8E493A3C8C582C8CAC583CA1A
:10020C00F0A3C8C582C8CAC583CADFE9DEE780BED1
:01000B0000F4
:10007E0075F008758200EF2FFFEE33FECD33CDCC39
:10008E0033CCC58233C5829BED9AEC99E5829840BC
:10009E000CF582EE9BFEED9AFDEC99FC0FD5F0D699
:1000AE00E4CEFBE4CDFAE4CCF9A88222B800C1B9C3
:1000BE000059BA002DEC8BF084CFCECDFCE5F0CB01
:1000CE00F97818EF2FFFEE33FEED33FDEC33FCEB3A
:1000DE0033FB10D703994004EB99FB0FD8E5E4F9F5
:1000EE00FA227818EF2FFFEE33FEED33FDEC33FCE2
:1000FE00C933C910D7059BE99A4007EC9BFCE99AD6
:10010E00F90FD8E0E4C9FAE4CCFB2275F010EF2F1A
:10011E00FFEE33FEED33FDCC33CCC833C810D7071A
:10012E009BEC9AE899400AED9BFDEC9AFCE899F855
:0E013E000FD5F0DAE4CDFBE4CCFAE4C8F922E8
:10014C00EB9FF5F0EA9E42F0E99D42F0E89C45F009
:01015C002280
:10015D00E8600FECC313FCED13FDEE13FEEF13FF80
:03016D00D8F122A4
:00000001FF
