:100003004D4F544F525F53544152540D0A004D4FBC
:0B001300544F525F53544F500D0A0031
:100656000313FF00030316FF00110111000112002E
:08060C008B088A09890A8D0B95
:10061400E4F50CE50CC3950B5022AB08AA09A90A12
:10062400850C8275830012007EFF1206817F017E95
:0C063400007D007C0012040C050C80D737
:010640002297
:1002620053B3FE53B4FE7F807E257D007C001205D1
:10027200D37F807E257D007C00120358D2AC439C44
:1002820001D2AF7FE87E037D007C0012053D3090F5
:10029200020512AF12D3EF9402748094804023AF10
:1002A20011EF701EC2ACAB13AA14A915120641AD10
:1002B20007AB13AA14A91512060CD2AC751101E4EE
:1002C200F512AF12EF60C7AF11EF640170C0C2AC9C
:1002D200AB16AA17A918120641AD07AB16AA17A9A1
:0D02E2001812060CD2ACE4F511F51280A143
:0300230002045A7A
:10045A00C0E0C0F0C083C082C0D075D000C000C068
:10046A0001C002C003C004C005C006C00730980D11
:10047A00C298539CFEAF99120691439C013099028F
:10048A00C299D007D006D005D004D003D002D0013B
:0D049A00D000D0D0D082D083D0F0D0E0329E
:03007B000204A7D5
:1004A700C0E0C0F0C083C082C0D075D000C000C01B
:1004B70001C002C003C004C005C006C00730F80B66
:1004C700C2F8C2ACAF9A120681D2AC30F902C2F9B7
:1004D700D007D006D005D004D003D002D001D00079
:0B04E700D0D0D082D083D0F0D0E03223
:1005D30053B1BF53B2BF53B17F53B27F75985043EA
:1005E3008920438780438E1053C4DFAB07AA06A933
:1005F30005A8047F407E427D0F7C001200E7EF04D4
:09060300F404F58DD28ED2992287
:03007600C2AC22F7
:08067100D2BC43B710D2AC2249
:04001E00539CFE22CF
:0A06670053FEFE53FFFE439C0122E8
:1002EF008F1C8E1B8D1A8C1953B1BF53B2BF53B1D4
:1002FF007F53B27F75985043878053C4F843C4200F
:10030F00AB1CAA1BA91AA8197F407E427D0F7C0047
:10031F001200E7C374FF9FFF74FF9EFEE49DFDE490
:10032F009CFC780812018A8FC6AB1CAA1BA91AA8BD
:10033F00197F407E427D0F7C001200E7C374FF9F40
:09034F00FF8FC543C408D29922B6
:070679003098FDAF99C29813
:010680002257
:08068100C2998F993099FD2206
:100358008F0B8E0A8D098C0853B1FB53B2FB53B334
:10036800BF53B4BF75F85075C40853C4DFAB0BAAAC
:100378000AA909A8087F407E427D0F7C001200E789
:10038800C374FF9FFF74FF9EFEE49DFDE49CFC7810
:100398000812018A8FC6AB0BAA0AA909A8087F40D0
:1003A8007E427D0F7C001200E7C374FF9FFF8FC55C
:0403B80043C4082210
:0706890030F8FDAF9AC2F842
:010690002247
:08069100C2F98F9A30F9FD2235
:1004F2008F248E238D228C21538EF7438901D28C37
:10050200E4FFFEFDFCAB24AA23A922A821C3120109
:10051200796025758A7E758CFF308DFDC28DE5244C
:1005220024FFF524E52334FFF523E52234FFF522E9
:0B053200E52134FFF52180C8C28C22B7
:10053D008F0B8E0A8D098C08538EF7438901D28C4F
:10054D00E4FFFEFDFCAB0BAA0AA909A808C3120122
:10055D00796025758ACA758CFA308DFDC28DE50BD3
:10056D0024FFF50BE50A34FFF50AE50934FFF5091B
:0B057D00E50834FFF50880C8C28C229E
:100588008F288E278D268C25538EEF438910D28E87
:10059800E4FFFEFDFCAB28AA27A926A825C3120163
:1005A800796025758BEA758DCB308FFDC28FE52874
:1005B80024FFF528E52734FFF527E52634FFF5263F
:0B05C800E52534FFF52580C8C28E2217
:10040C008F108E0F8D0E8C0D53C9BF53C9DF43C98E
:10041C0010D2CAE4FFFEFDFCAB10AA0FA90EA80D6A
:10042C00C3120179602575CC3075CDF830CFFDC283
:10043C00CFE51024FFF510E50F34FFF50FE50E3472
:0E044C00FFF50EE50D34FFF50D80C8C2CA2283
:100026008F2C8E2B8D2A8C2975C40743C408E4FFB8
:10003600FEFDFCAB2CAA2BA92AA829C312017960C4
:100046002B75C52C75C6CFE5C45410641070F853D3
:10005600C4EFE52C24FFF52CE52B34FFF52BE52A20
:1000660034FFF52AE52934FFF52980C253C4F72267
:1003BC008F308E2F8D2E8C2D75C40743C408E4FF0F
:1003CC00FEFDFCAB30AA2FA92EA82DC3120179601B
:1003DC002B75C5D875C6FFE5C45410641070F8535E
:1003EC00C4EFE53024FFF530E52F34FFF52FE52E73
:1003FC0034FFF52EE52D34FFF52D80C253C4F722C2
:030000000201B644
:1001B60075C7AA75C75575FD5A75C7AA75C755750A
:1001C600FDA5787FE4F6D8FD9000007FFF7E03E46E
:0C01D600F0A3DFFCDEFA75813002021D90
:1001E200020262E493A3F8E493A34003F68001F2CF
:1001F20008DFF48029E493A3F85407240CC8C3331E
:10020200C4540F4420C8834004F456800146F6DFEC
:10021200E4800B0102040810204080900656E47E20
:10022200019360BCA3FF543F30E509541FFEE493E1
:10023200A360010ECF54C025E060A840B8E493A3A8
:10024200FAE493A3F8E493A3C8C582C8CAC583CAD3
:10025200F0A3C8C582C8CAC583CADFE9DEE780BE8B
:010666000093
:10007E00BB010CE58229F582E5833AF583E0225037
:10008E0006E92582F8E622BBFE06E92582F8E22281
:0D009E00E58229F582E5833AF583E493229B
:1000AB0075F008758200EF2FFFEE33FECD33CDCC0C
:1000BB0033CCC58233C5829BED9AEC99E58298408F
:1000CB000CF582EE9BFEED9AFDEC99FC0FD5F0D66C
:1000DB00E4CEFBE4CDFAE4CCF9A88222B800C1B996
:1000EB000059BA002DEC8BF084CFCECDFCE5F0CBD4
:1000FB00F97818EF2FFFEE33FEED33FDEC33FCEB0D
:10010B0033FB10D703994004EB99FB0FD8E5E4F9C7
:10011B00FA227818EF2FFFEE33FEED33FDEC33FCB4
:10012B00C933C910D7059BE99A4007EC9BFCE99AA8
:10013B00F90FD8E0E4C9FAE4CCFB2275F010EF2FED
:10014B00FFEE33FEED33FDCC33CCC833C810D707ED
:10015B009BEC9AE899400AED9BFDEC9AFCE899F828
:0E016B000FD5F0DAE4CDFBE4CCFAE4C8F922BB
:10017900EB9FF5F0EA9E42F0E99D42F0E89C45F0DC
:010189002253
:10018A00E8600FECC313FCED13FDEE13FEEF13FF53
:03019A00D8F12277
:10064100E4FFFE12019D600C0FEF70010E09E970CD
:05065100F20A80EF2217
:10019D00BB010689828A83E0225002E722BBFE0260
:0901AD00E32289828A83E4932293
:00000001FF
